07500011036PARACETAMOL                             011036011036JW  1234000000000C8H9NO2             000001511630E00000151163000000001     
07500047602NATRIUMCHLORIDE                         047602047602JW  5678000000000ClNa                000000584400E00000058440000000004     
07500055700MEROPENEM                               055700055700JW  9012000000000C17H25N3O5S         000003834600E00000383460000000001     
07500004059AMOXICILLINE                            004059004059JW  3456000000000C16H19N3O5S         000003654000E00000365400000000001     
